{
  "contractName": "Guess4",
  "abi": [
    {
      "inputs": [],
      "payable": false,
      "stateMutability": "nonpayable",
      "type": "constructor"
    },
    {
      "constant": false,
      "inputs": [],
      "name": "kill",
      "outputs": [],
      "payable": false,
      "stateMutability": "nonpayable",
      "type": "function"
    },
    {
      "constant": false,
      "inputs": [
        {
          "name": "_adder",
          "type": "uint8"
        }
      ],
      "name": "time_call",
      "outputs": [],
      "payable": false,
      "stateMutability": "nonpayable",
      "type": "function"
    },
    {
      "constant": true,
      "inputs": [],
      "name": "getArray",
      "outputs": [
        {
          "name": "",
          "type": "uint256[5]"
        }
      ],
      "payable": false,
      "stateMutability": "view",
      "type": "function"
    },
    {
      "constant": true,
      "inputs": [
        {
          "name": "x",
          "type": "uint8"
        }
      ],
      "name": "getValue",
      "outputs": [
        {
          "name": "",
          "type": "uint256"
        }
      ],
      "payable": false,
      "stateMutability": "view",
      "type": "function"
    },
    {
      "constant": false,
      "inputs": [
        {
          "name": "guess0",
          "type": "uint8"
        },
        {
          "name": "guess1",
          "type": "uint8"
        },
        {
          "name": "guess2",
          "type": "uint8"
        },
        {
          "name": "guess3",
          "type": "uint8"
        }
      ],
      "name": "createGuesses",
      "outputs": [
        {
          "name": "",
          "type": "uint8"
        }
      ],
      "payable": false,
      "stateMutability": "nonpayable",
      "type": "function"
    },
    {
      "constant": true,
      "inputs": [],
      "name": "testCalls",
      "outputs": [
        {
          "name": "",
          "type": "string"
        }
      ],
      "payable": false,
      "stateMutability": "view",
      "type": "function"
    }
  ],
  "bytecode": "0x6060604052341561000f57600080fd5b336000806101000a81548173ffffffffffffffffffffffffffffffffffffffff021916908373ffffffffffffffffffffffffffffffffffffffff1602179055506106908061005e6000396000f300606060405260043610610078576000357c0100000000000000000000000000000000000000000000000000000000900463ffffffff168063181be00d1461007d57806323288051146100b757806341c0e1b51461011b57806351d1a820146101305780635a9d3ec2146101be578063d504ea1d146101e4575b600080fd5b341561008857600080fd5b6100a1600480803560ff16906020019091905050610235565b6040518082815260200191505060405180910390f35b34156100c257600080fd5b6100ff600480803560ff1690602001909190803560ff1690602001909190803560ff1690602001909190803560ff16906020019091905050610252565b604051808260ff1660ff16815260200191505060405180910390f35b341561012657600080fd5b61012e61033d565b005b341561013b57600080fd5b6101436103ce565b6040518080602001828103825283818151815260200191508051906020019080838360005b83811015610183578082015181840152602081019050610168565b50505050905090810190601f1680156101b05780820380516001836020036101000a031916815260200191505b509250505060405180910390f35b34156101c957600080fd5b6101e2600480803560ff169060200190919050506104fd565b005b34156101ef57600080fd5b6101f76105ba565b6040518082600560200280838360005b83811015610222578082015181840152602081019050610207565b5050505090500191505060405180910390f35b600060028260ff1660058110151561024957fe5b01549050919050565b600080828486880101019050856007600060048110151561026f57fe5b602091828204019190066101000a81548160ff021916908360ff16021790555084600760016004811015156102a057fe5b602091828204019190066101000a81548160ff021916908360ff16021790555083600760026004811015156102d157fe5b602091828204019190066101000a81548160ff021916908360ff160217905550826007600360048110151561030257fe5b602091828204019190066101000a81548160ff021916908360ff16021790555061032b816104fd565b6103336103ce565b5050949350505050565b6000809054906101000a900473ffffffffffffffffffffffffffffffffffffffff1673ffffffffffffffffffffffffffffffffffffffff163373ffffffffffffffffffffffffffffffffffffffff1614156103cc576000809054906101000a900473ffffffffffffffffffffffffffffffffffffffff1673ffffffffffffffffffffffffffffffffffffffff16ff5b565b6103d6610605565b60006103e0610605565b600080925060206040519081016040528060008152509150600090505b60048160ff1610156104e65760078160ff1660048110151561041b57fe5b602091828204019190069054906101000a900460ff1660ff1660028260ff1660058110151561044657fe5b015414156104575782806001019350505b60048360ff1614156104a0576040805190810160405280601981526020017f796f7520676f742074686520435446203078303030313233340000000000000081525091506104d9565b6040805190810160405280600981526020017f54727920616761696e000000000000000000000000000000000000000000000081525091505b80806001019150506103fd565b600260006104f49190610619565b81935050505090565b6000808260ff169150816103e84281151561051457fe5b0401905060028181151561052457fe5b066002600060058110151561053557fe5b018190555060038181151561054657fe5b066002600160058110151561055757fe5b018190555060058181151561056857fe5b0660028060058110151561057857fe5b018190555060078181151561058957fe5b066002600360058110151561059a57fe5b018190555080600260046005811015156105b057fe5b0181905550505050565b6105c261063c565b60026005806020026040519081016040528092919082600580156105fb576020028201915b8154815260200190600101908083116105e7575b5050505050905090565b602060405190810160405280600081525090565b506000815560010160008155600101600081556001016000815560010160009055565b60a0604051908101604052806005905b600081526020019060019003908161064c57905050905600a165627a7a7230582040758343d766be8e47a3df22e0a6283c4472e5065b479e1ca64a87a4ab9bbfa50029",
  "source": "pragma solidity ^0.4.17;\r\ncontract Guess4 {\r\n    //global variables\r\n    address owner;\r\n    address creator;\r\n    //bytes32[4] bytesArray; // size must be fixed\r\n    uint[5] resultArray;\r\n    //uint8 correctCount = 0;\r\n    uint8[4] guesses;\r\n\r\n  //  uint _guess1;\r\n\r\n    //modifiers\r\n    modifier restricted() {\r\n        require(msg.sender == owner);\r\n        _;\r\n    }\r\n\r\n    // initialize\r\n    function Guess4() public {\r\n        owner = msg.sender;\r\n\r\n    }\r\n    function kill() public {\r\n        if(msg.sender == owner) selfdestruct(owner);\r\n    }\r\n    function  time_call(uint8 _adder) public{\r\n        uint adder = _adder;\r\n        uint timeNow  = now/1000 + adder;\r\n        //resultArray[0] = timeNow;\r\n        resultArray[0] = timeNow % 2;\r\n        resultArray[1] = timeNow % 3;\r\n        resultArray[2] = timeNow % 5;\r\n        resultArray[3] = timeNow % 7;\r\n        resultArray[4] = timeNow;\r\n        //resultArray[4] = timeNow % 10;\r\n    }\r\n\r\n    function getArray() constant public returns ( uint[5])\r\n    {\r\n        return resultArray;\r\n    }\r\n\r\n    function getValue(uint8 x) constant public returns (uint)\r\n    {\r\n        return resultArray[x];\r\n    }\r\n\r\n    function createGuesses(uint8 guess0, uint8 guess1, uint8 guess2, uint8 guess3) public returns (uint8) {\r\n        uint8 adder = guess0 + guess1 + guess2 + guess3;\r\n        guesses[0] = guess0;\r\n        guesses[1] = guess1;\r\n        guesses[2] = guess2;\r\n        guesses[3] = guess3;\r\n        time_call(adder);\r\n        testCalls();\r\n\r\n    }\r\n\r\n    function testCalls()  public view returns (string) {\r\n        uint8 correctCount = 0;\r\n        string memory result_answer;\r\n        result_answer = \"\";\r\n        for(uint8 i = 0; i < 4; i++){\r\n            if(resultArray[i] == guesses[i]) {\r\n                correctCount++;\r\n            }\r\n            if (correctCount == guesses.length){\r\n              result_answer = \"you got the CTF 0x0001234\";\r\n            } else {\r\n              result_answer = \"Try again\";\r\n            }\r\n        }\r\n        delete resultArray;\r\n        return result_answer;\r\n    }\r\n\r\n}\r\n",
  "sourcePath": "C:\\Users\\glgai\\ChainSkills\\CTF\\guess\\contracts\\guess4.sol",
  "compiler": {
    "name": "solc",
    "version": "0.4.19+commit.c4cbbb05.Emscripten.clang"
  },
  "schemaVersion": "2.0.0",
  "updatedAt": "2018-03-28T00:37:32.977Z"
}