{
  "contractName": "Guess4",
  "abi": [
    {
      "inputs": [],
      "payable": false,
      "stateMutability": "nonpayable",
      "type": "constructor"
    },
    {
      "constant": false,
      "inputs": [],
      "name": "kill",
      "outputs": [],
      "payable": false,
      "stateMutability": "nonpayable",
      "type": "function"
    },
    {
      "constant": true,
      "inputs": [
        {
          "name": "guess0",
          "type": "uint8"
        },
        {
          "name": "guess1",
          "type": "uint8"
        },
        {
          "name": "guess2",
          "type": "uint8"
        },
        {
          "name": "guess3",
          "type": "uint8"
        }
      ],
      "name": "createGuesses",
      "outputs": [
        {
          "name": "",
          "type": "uint256[5]"
        },
        {
          "name": "",
          "type": "string"
        }
      ],
      "payable": false,
      "stateMutability": "view",
      "type": "function"
    }
  ],
  "bytecode": "0x6060604052341561000f57600080fd5b336000806101000a81548173ffffffffffffffffffffffffffffffffffffffff021916908373ffffffffffffffffffffffffffffffffffffffff1602179055506105188061005e6000396000f30060606040526004361061004c576000357c0100000000000000000000000000000000000000000000000000000000900463ffffffff168063232880511461005157806341c0e1b514610143575b600080fd5b341561005c57600080fd5b610099600480803560ff1690602001909190803560ff1690602001909190803560ff1690602001909190803560ff16906020019091905050610158565b6040518083600560200280838360005b838110156100c45780820151818401526020810190506100a9565b5050505090500180602001828103825283818151815260200191508051906020019080838360005b838110156101075780820151818401526020810190506100ec565b50505050905090810190601f1680156101345780820380516001836020036101000a031916815260200191505b50935050505060405180910390f35b341561014e57600080fd5b6101566103f4565b005b610160610485565b6101686104ad565b610170610485565b6101786104c1565b6000806101836104ad565b600080898b8d8f0101019450600093508c8660006004811015156101a357fe5b602002019060ff16908160ff16815250508b8660016004811015156101c457fe5b602002019060ff16908160ff16815250508a8660026004811015156101e557fe5b602002019060ff16908160ff16815250508986600360048110151561020657fe5b602002019060ff16908160ff16815250508460ff166103e84281151561022857fe5b0401915060028281151561023857fe5b0687600060058110151561024857fe5b60200201818152505060038281151561025d57fe5b0687600160058110151561026d57fe5b60200201818152505060058281151561028257fe5b0687600260058110151561029257fe5b6020020181815250506007828115156102a757fe5b068760036005811015156102b757fe5b602002018181525050818760046005811015156102d057fe5b602002018181525050600090505b60048160ff1610156103de57858160ff166004811015156102fb57fe5b602002015160ff16878260ff1660058110151561031457fe5b602002015114156103285783806001019450505b60048460ff16141561039857606060405190810160405280603381526020017f796f7520676f742074686520466c61673a20205750497b416c6c5f4861696c5f81526020017f5468655f4d69676874795f566974616c696b7d0000000000000000000000000081525092506103d1565b6040805190810160405280600981526020017f54727920616761696e000000000000000000000000000000000000000000000081525092505b80806001019150506102de565b8683985098505050505050505094509492505050565b6000809054906101000a900473ffffffffffffffffffffffffffffffffffffffff1673ffffffffffffffffffffffffffffffffffffffff163373ffffffffffffffffffffffffffffffffffffffff161415610483576000809054906101000a900473ffffffffffffffffffffffffffffffffffffffff1673ffffffffffffffffffffffffffffffffffffffff16ff5b565b60a0604051908101604052806005905b60008152602001906001900390816104955790505090565b602060405190810160405280600081525090565b6080604051908101604052806004905b600060ff168152602001906001900390816104d157905050905600a165627a7a72305820aa4944c4dec7e545ac2787f20ba557dfe320712775c5d07d581e8734102753300029",
  "source": "pragma solidity ^0.4.17;\r\ncontract Guess4 {\r\n    //global variables\r\n    address owner;\r\n    address creator;\r\n    //bytes32[4] bytesArray; // size must be fixed\r\n  //  uint[5] resultArray;\r\n    //uint8 correctCount = 0;\r\n  //  uint8[4] guesses;\r\n\r\n  //  uint _guess1;\r\n\r\n    //modifiers\r\n    modifier restricted() {\r\n        require(msg.sender == owner);\r\n        _;\r\n    }\r\n\r\n    // initialize\r\n    function Guess4() public {\r\n        owner = msg.sender;\r\n\r\n    }\r\n    function kill() public {\r\n        if(msg.sender == owner) selfdestruct(owner);\r\n    }\r\n    /* function  time_call(uint8 _adder) public{\r\n        //uint[5] resultArray;\r\n        uint adder = _adder;\r\n        uint timeNow  = now/1000 + adder;\r\n        //resultArray[0] = timeNow;\r\n        resultArray[0] = timeNow % 2;\r\n        resultArray[1] = timeNow % 3;\r\n        resultArray[2] = timeNow % 5;\r\n        resultArray[3] = timeNow % 7;\r\n        resultArray[4] = timeNow;\r\n        //resultArray[4] = timeNow % 10;\r\n    } */\r\n\r\n    /* function getArray() constant public returns ( uint[5])\r\n    {\r\n        return resultArray;\r\n    }\r\n\r\n    function getValue(uint8 x) constant public returns (uint)\r\n    {\r\n        return resultArray[x];\r\n    } */\r\n\r\n    function createGuesses(uint8 guess0, uint8 guess1, uint8 guess2, uint8 guess3) public view returns (uint[5], string) {\r\n      uint[5] memory resultArray;\r\n      uint8[4] memory guesses;\r\n      uint8 adder = guess0 + guess1 + guess2 + guess3;\r\n      uint8 correctCount = 0;\r\n      string memory result_answer;\r\n      //result_answer = \"\";\r\n      guesses[0] = guess0;\r\n      guesses[1] = guess1;\r\n      guesses[2] = guess2;\r\n      guesses[3] = guess3;\r\n\r\n      uint timeNow  = now/1000 + adder;\r\n      //resultArray[0] = timeNow;\r\n      resultArray[0] = timeNow % 2;\r\n      resultArray[1] = timeNow % 3;\r\n      resultArray[2] = timeNow % 5;\r\n      resultArray[3] = timeNow % 7;\r\n      resultArray[4] = timeNow;\r\n\r\n      for(uint8 i = 0; i < 4; i++){\r\n          if(resultArray[i] == guesses[i]) {\r\n              correctCount++;\r\n          }\r\n          if (correctCount == guesses.length){\r\n            result_answer = \"you got the Flag:  WPI{All_Hail_The_Mighty_Vitalik}\";\r\n          } else {\r\n            result_answer = \"Try again\";\r\n          }\r\n      }\r\n      //return result_answer;\r\n      return (resultArray, result_answer);\r\n\r\n    }\r\n\r\n    /* function testCalls()  public view returns (string) {\r\n        uint8 correctCount = 0;\r\n        string memory result_answer;\r\n        result_answer = \"\";\r\n        for(uint8 i = 0; i < 4; i++){\r\n            if(resultArray[i] == guesses[i]) {\r\n                correctCount++;\r\n            }\r\n            if (correctCount == guesses.length){\r\n              result_answer = \"you got the CTF 0x0001234\";\r\n            } else {\r\n              result_answer = \"Try again\";\r\n            }\r\n        }\r\n\r\n        return result_answer;\r\n    } */\r\n/*  */\r\n}\r\n",
  "sourcePath": "C:\\Users\\glgai\\ChainSkills\\CTF\\guess\\contracts\\guess4.sol",
  "compiler": {
    "name": "solc",
    "version": "0.4.19+commit.c4cbbb05.Emscripten.clang"
  },
  "schemaVersion": "2.0.0",
  "updatedAt": "2018-04-02T14:01:50.982Z"
}