{
  "contractName": "Guess4",
  "abi": [
    {
      "inputs": [],
      "payable": false,
      "stateMutability": "nonpayable",
      "type": "constructor"
    },
    {
      "constant": false,
      "inputs": [],
      "name": "kill",
      "outputs": [],
      "payable": false,
      "stateMutability": "nonpayable",
      "type": "function"
    },
    {
      "constant": false,
      "inputs": [
        {
          "name": "guess0",
          "type": "uint8"
        },
        {
          "name": "guess1",
          "type": "uint8"
        },
        {
          "name": "guess2",
          "type": "uint8"
        },
        {
          "name": "guess3",
          "type": "uint8"
        }
      ],
      "name": "createGuesses",
      "outputs": [
        {
          "name": "",
          "type": "string"
        }
      ],
      "payable": false,
      "stateMutability": "nonpayable",
      "type": "function"
    }
  ],
  "bytecode": "0x6060604052341561000f57600080fd5b336000806101000a81548173ffffffffffffffffffffffffffffffffffffffff021916908373ffffffffffffffffffffffffffffffffffffffff1602179055506104b68061005e6000396000f30060606040526004361061004c576000357c0100000000000000000000000000000000000000000000000000000000900463ffffffff168063232880511461005157806341c0e1b514610114575b600080fd5b341561005c57600080fd5b610099600480803560ff1690602001909190803560ff1690602001909190803560ff1690602001909190803560ff16906020019091905050610129565b6040518080602001828103825283818151815260200191508051906020019080838360005b838110156100d95780820151818401526020810190506100be565b50505050905090810190601f1680156101065780820380516001836020036101000a031916815260200191505b509250505060405180910390f35b341561011f57600080fd5b610127610392565b005b610131610423565b610139610437565b61014161045f565b60008061014c610423565b600080888a8c8e0101019450600093508b86600060048110151561016c57fe5b602002019060ff16908160ff16815250508a86600160048110151561018d57fe5b602002019060ff16908160ff1681525050898660026004811015156101ae57fe5b602002019060ff16908160ff1681525050888660036004811015156101cf57fe5b602002019060ff16908160ff16815250508460ff166103e8428115156101f157fe5b0401915060028281151561020157fe5b0687600060058110151561021157fe5b60200201818152505060038281151561022657fe5b0687600160058110151561023657fe5b60200201818152505060058281151561024b57fe5b0687600260058110151561025b57fe5b60200201818152505060078281151561027057fe5b0687600360058110151561028057fe5b6020020181815250508187600460058110151561029957fe5b602002018181525050600090505b60048160ff16101561038057858160ff166004811015156102c457fe5b602002015160ff16878260ff166005811015156102dd57fe5b602002015114156102f15783806001019450505b60048460ff16141561033a576040805190810160405280601981526020017f796f7520676f74207468652043544620307830303031323334000000000000008152509250610373565b6040805190810160405280600981526020017f54727920616761696e000000000000000000000000000000000000000000000081525092505b80806001019150506102a7565b82975050505050505050949350505050565b6000809054906101000a900473ffffffffffffffffffffffffffffffffffffffff1673ffffffffffffffffffffffffffffffffffffffff163373ffffffffffffffffffffffffffffffffffffffff161415610421576000809054906101000a900473ffffffffffffffffffffffffffffffffffffffff1673ffffffffffffffffffffffffffffffffffffffff16ff5b565b602060405190810160405280600081525090565b60a0604051908101604052806005905b60008152602001906001900390816104475790505090565b6080604051908101604052806004905b600060ff1681526020019060019003908161046f57905050905600a165627a7a723058205274a27714346bc7d698a1387df94dd7d275b93301e5f4538a5d08fbe3fc67eb0029",
  "source": "pragma solidity ^0.4.17;\r\ncontract Guess4 {\r\n    //global variables\r\n    address owner;\r\n    address creator;\r\n    //bytes32[4] bytesArray; // size must be fixed\r\n  //  uint[5] resultArray;\r\n    //uint8 correctCount = 0;\r\n  //  uint8[4] guesses;\r\n\r\n  //  uint _guess1;\r\n\r\n    //modifiers\r\n    modifier restricted() {\r\n        require(msg.sender == owner);\r\n        _;\r\n    }\r\n\r\n    // initialize\r\n    function Guess4() public {\r\n        owner = msg.sender;\r\n\r\n    }\r\n    function kill() public {\r\n        if(msg.sender == owner) selfdestruct(owner);\r\n    }\r\n    /* function  time_call(uint8 _adder) public{\r\n        //uint[5] resultArray;\r\n        uint adder = _adder;\r\n        uint timeNow  = now/1000 + adder;\r\n        //resultArray[0] = timeNow;\r\n        resultArray[0] = timeNow % 2;\r\n        resultArray[1] = timeNow % 3;\r\n        resultArray[2] = timeNow % 5;\r\n        resultArray[3] = timeNow % 7;\r\n        resultArray[4] = timeNow;\r\n        //resultArray[4] = timeNow % 10;\r\n    } */\r\n\r\n    /* function getArray() constant public returns ( uint[5])\r\n    {\r\n        return resultArray;\r\n    }\r\n\r\n    function getValue(uint8 x) constant public returns (uint)\r\n    {\r\n        return resultArray[x];\r\n    } */\r\n\r\n    function createGuesses(uint8 guess0, uint8 guess1, uint8 guess2, uint8 guess3) public returns (string) {\r\n      uint[5] memory resultArray;\r\n      uint8[4] memory guesses;\r\n      uint8 adder = guess0 + guess1 + guess2 + guess3;\r\n      uint8 correctCount = 0;\r\n      string memory result_answer;\r\n      //result_answer = \"\";\r\n      guesses[0] = guess0;\r\n      guesses[1] = guess1;\r\n      guesses[2] = guess2;\r\n      guesses[3] = guess3;\r\n\r\n      uint timeNow  = now/1000 + adder;\r\n      //resultArray[0] = timeNow;\r\n      resultArray[0] = timeNow % 2;\r\n      resultArray[1] = timeNow % 3;\r\n      resultArray[2] = timeNow % 5;\r\n      resultArray[3] = timeNow % 7;\r\n      resultArray[4] = timeNow;\r\n\r\n      for(uint8 i = 0; i < 4; i++){\r\n          if(resultArray[i] == guesses[i]) {\r\n              correctCount++;\r\n          }\r\n          if (correctCount == guesses.length){\r\n            result_answer = \"you got the CTF 0x0001234\";\r\n          } else {\r\n            result_answer = \"Try again\";\r\n          }\r\n      }\r\n      return result_answer;\r\n\r\n    }\r\n\r\n    /* function testCalls()  public view returns (string) {\r\n        uint8 correctCount = 0;\r\n        string memory result_answer;\r\n        result_answer = \"\";\r\n        for(uint8 i = 0; i < 4; i++){\r\n            if(resultArray[i] == guesses[i]) {\r\n                correctCount++;\r\n            }\r\n            if (correctCount == guesses.length){\r\n              result_answer = \"you got the CTF 0x0001234\";\r\n            } else {\r\n              result_answer = \"Try again\";\r\n            }\r\n        }\r\n\r\n        return result_answer;\r\n    } */\r\n/*  */\r\n}\r\n",
  "sourcePath": "C:\\Users\\glgai\\ChainSkills\\CTF\\guess\\contracts\\guess4.sol",
  "compiler": {
    "name": "solc",
    "version": "0.4.19+commit.c4cbbb05.Emscripten.clang"
  },
  "schemaVersion": "2.0.0",
  "updatedAt": "2018-03-28T02:10:17.709Z"
}