{
  "contractName": "Guess6",
  "abi": [
    {
      "inputs": [],
      "payable": false,
      "stateMutability": "nonpayable",
      "type": "constructor"
    },
    {
      "constant": false,
      "inputs": [],
      "name": "kill",
      "outputs": [],
      "payable": false,
      "stateMutability": "nonpayable",
      "type": "function"
    },
    {
      "constant": true,
      "inputs": [
        {
          "name": "guess0",
          "type": "uint16"
        },
        {
          "name": "guess1",
          "type": "uint16"
        },
        {
          "name": "guess2",
          "type": "uint16"
        },
        {
          "name": "guess3",
          "type": "uint16"
        }
      ],
      "name": "createGuesses",
      "outputs": [
        {
          "name": "",
          "type": "uint256[5]"
        },
        {
          "name": "",
          "type": "string"
        }
      ],
      "payable": false,
      "stateMutability": "view",
      "type": "function"
    }
  ],
  "bytecode": "0x6060604052341561000f57600080fd5b336000806101000a81548173ffffffffffffffffffffffffffffffffffffffff021916908373ffffffffffffffffffffffffffffffffffffffff16021790555061052a8061005e6000396000f30060606040526004361061004c576000357c0100000000000000000000000000000000000000000000000000000000900463ffffffff16806341c0e1b5146100515780634dc6774f14610066575b600080fd5b341561005c57600080fd5b61006461015c565b005b341561007157600080fd5b6100b2600480803561ffff1690602001909190803561ffff1690602001909190803561ffff1690602001909190803561ffff169060200190919050506101ed565b6040518083600560200280838360005b838110156100dd5780820151818401526020810190506100c2565b5050505090500180602001828103825283818151815260200191508051906020019080838360005b83811015610120578082015181840152602081019050610105565b50505050905090810190601f16801561014d5780820380516001836020036101000a031916815260200191505b50935050505060405180910390f35b6000809054906101000a900473ffffffffffffffffffffffffffffffffffffffff1673ffffffffffffffffffffffffffffffffffffffff163373ffffffffffffffffffffffffffffffffffffffff1614156101eb576000809054906101000a900473ffffffffffffffffffffffffffffffffffffffff1673ffffffffffffffffffffffffffffffffffffffff16ff5b565b6101f5610496565b6101fd6104be565b610205610496565b61020d6104d2565b6000806102186104be565b600080898b8d8f0101019450600093508c86600060048110151561023857fe5b602002019061ffff16908161ffff16815250508b86600160048110151561025b57fe5b602002019061ffff16908161ffff16815250508a86600260048110151561027e57fe5b602002019061ffff16908161ffff1681525050898660036004811015156102a157fe5b602002019061ffff16908161ffff16815250508461ffff166064428115156102c557fe5b040191506002828115156102d557fe5b068760006005811015156102e557fe5b6020020181815250506003828115156102fa57fe5b0687600160058110151561030a57fe5b60200201818152505060058281151561031f57fe5b0687600260058110151561032f57fe5b60200201818152505060078281151561034457fe5b0687600360058110151561035457fe5b6020020181815250508187600460058110151561036d57fe5b602002018181525050600090505b60048161ffff16101561048057858161ffff1660048110151561039a57fe5b602002015161ffff16878261ffff166005811015156103b557fe5b602002015114156103c95783806001019450505b60048461ffff16141561043a57606060405190810160405280603381526020017f796f7520676f742074686520466c61673a20205750497b416c6c5f4861696c5f81526020017f5468655f4d69676874795f566974616c696b7d000000000000000000000000008152509250610473565b6040805190810160405280600981526020017f54727920616761696e000000000000000000000000000000000000000000000081525092505b808060010191505061037b565b8683985098505050505050505094509492505050565b60a0604051908101604052806005905b60008152602001906001900390816104a65790505090565b602060405190810160405280600081525090565b6080604051908101604052806004905b600061ffff168152602001906001900390816104e257905050905600a165627a7a72305820d5104289a41bc86ae250a144d47b28b85cf8fab5325c817dc08ec0f878d33cb10029",
  "source": "pragma solidity ^0.4.17;\r\ncontract Guess4 {\r\n    //global variables\r\n    address owner;\r\n    //address creator;\r\n    //address current_player;\r\n    //bytes32[4] bytesArray; // size must be fixed\r\n  //  uint[5] resultArray;\r\n    //uint8 correctCount = 0;\r\n  //  uint8[4] guesses;\r\n\r\n  //  uint _guess1;\r\n\r\n    //modifiers\r\n    modifier restricted() {\r\n        require(msg.sender == owner);\r\n        _;\r\n    }\r\n\r\n    // initialize\r\n    function Guess4() public {\r\n        owner = msg.sender;\r\n\r\n    }\r\n    function kill() public {\r\n        if(msg.sender == owner) selfdestruct(owner);\r\n    }\r\n    /* function  time_call(uint8 _adder) public{\r\n        //uint[5] resultArray;\r\n        uint adder = _adder;\r\n        uint timeNow  = now/1000 + adder;\r\n        //resultArray[0] = timeNow;\r\n        resultArray[0] = timeNow % 2;\r\n        resultArray[1] = timeNow % 3;\r\n        resultArray[2] = timeNow % 5;\r\n        resultArray[3] = timeNow % 7;\r\n        resultArray[4] = timeNow;\r\n        //resultArray[4] = timeNow % 10;\r\n    } */\r\n\r\n    /* function getArray() constant public returns ( uint[5])\r\n    {\r\n        return resultArray;\r\n    }\r\n\r\n    function getValue(uint8 x) constant public returns (uint)\r\n    {\r\n        return resultArray[x];\r\n    } */\r\n\r\n    function createGuesses(uint16 guess0, uint16 guess1, uint16 guess2, uint16 guess3) public view returns (uint[5], string) {\r\n      uint[5] memory resultArray;\r\n      uint16[4] memory guesses;\r\n      uint16 adder = guess0 + guess1 + guess2 + guess3;// + guess4;//+ guess5;\r\n      uint16 correctCount = 0;\r\n      string memory result_answer;\r\n      //result_answer = \"\";\r\n      guesses[0] = guess0;\r\n      guesses[1] = guess1;\r\n      guesses[2] = guess2;\r\n      guesses[3] = guess3;\r\n      //guesses[4] = guess4;\r\n      //guesses[5] = guess5;\r\n\r\n      uint timeNow  = now/100 + adder;\r\n      //resultArray[0] = timeNow;\r\n      resultArray[0] = timeNow % 2;\r\n      resultArray[1] = timeNow % 3;\r\n      resultArray[2] = timeNow % 5;\r\n      resultArray[3] = timeNow % 7;\r\n      //resultArray[4] = timeNow % 8;\r\n    //  resultArray[5] = timeNow % 9;\r\n\r\n      resultArray[4] = timeNow;\r\n\r\n      for(uint16 i = 0; i < 4; i++){\r\n          if(resultArray[i] == guesses[i]) {\r\n              correctCount++;\r\n          }\r\n          if (correctCount == guesses.length){\r\n            result_answer = \"you got the Flag:  WPI{All_Hail_The_Mighty_Vitalik}\";\r\n          } else {\r\n            result_answer = \"Try again\";\r\n          }\r\n      }\r\n      //return result_answer;\r\n      return (resultArray, result_answer);\r\n\r\n    }\r\n\r\n    /* function testCalls()  public view returns (string) {\r\n        uint8 correctCount = 0;\r\n        string memory result_answer;\r\n        result_answer = \"\";\r\n        for(uint8 i = 0; i < 4; i++){\r\n            if(resultArray[i] == guesses[i]) {\r\n                correctCount++;\r\n            }\r\n            if (correctCount == guesses.length){\r\n              result_answer = \"you got the CTF 0x0001234\";\r\n            } else {\r\n              result_answer = \"Try again\";\r\n            }\r\n        }\r\n\r\n        return result_answer;\r\n    } */\r\n/*  */\r\n}\r\n",
  "sourcePath": "C:\\Users\\glgai\\ChainSkills\\CTF\\guess\\contracts\\guess4.sol",
  "compiler": {
    "name": "solc",
    "version": "0.4.19+commit.c4cbbb05.Emscripten.clang"
  },
  "schemaVersion": "2.0.0",
  "updatedAt": "2018-04-09T14:28:18.614Z"
}