{
  "contractName": "Guess4",
  "abi": [
    {
      "inputs": [],
      "payable": false,
      "stateMutability": "nonpayable",
      "type": "constructor"
    },
    {
      "constant": false,
      "inputs": [],
      "name": "kill",
      "outputs": [],
      "payable": false,
      "stateMutability": "nonpayable",
      "type": "function"
    },
    {
      "constant": false,
      "inputs": [
        {
          "name": "_adder",
          "type": "uint8"
        }
      ],
      "name": "time_call",
      "outputs": [],
      "payable": false,
      "stateMutability": "nonpayable",
      "type": "function"
    },
    {
      "constant": true,
      "inputs": [],
      "name": "getArray",
      "outputs": [
        {
          "name": "",
          "type": "uint256[5]"
        }
      ],
      "payable": false,
      "stateMutability": "view",
      "type": "function"
    },
    {
      "constant": true,
      "inputs": [
        {
          "name": "x",
          "type": "uint8"
        }
      ],
      "name": "getValue",
      "outputs": [
        {
          "name": "",
          "type": "uint256"
        }
      ],
      "payable": false,
      "stateMutability": "view",
      "type": "function"
    },
    {
      "constant": false,
      "inputs": [
        {
          "name": "guess0",
          "type": "uint8"
        },
        {
          "name": "guess1",
          "type": "uint8"
        },
        {
          "name": "guess2",
          "type": "uint8"
        },
        {
          "name": "guess3",
          "type": "uint8"
        }
      ],
      "name": "createGuesses",
      "outputs": [
        {
          "name": "",
          "type": "uint8"
        }
      ],
      "payable": false,
      "stateMutability": "nonpayable",
      "type": "function"
    },
    {
      "constant": true,
      "inputs": [],
      "name": "testCalls",
      "outputs": [
        {
          "name": "",
          "type": "string"
        }
      ],
      "payable": false,
      "stateMutability": "view",
      "type": "function"
    }
  ],
  "bytecode": "0x6060604052341561000f57600080fd5b336000806101000a81548173ffffffffffffffffffffffffffffffffffffffff021916908373ffffffffffffffffffffffffffffffffffffffff1602179055506106a78061005e6000396000f300606060405260043610610078576000357c0100000000000000000000000000000000000000000000000000000000900463ffffffff168063181be00d1461007d57806323288051146100b757806341c0e1b51461011b57806351d1a820146101305780635a9d3ec2146101be578063d504ea1d146101e4575b600080fd5b341561008857600080fd5b6100a1600480803560ff16906020019091905050610235565b6040518082815260200191505060405180910390f35b34156100c257600080fd5b6100ff600480803560ff1690602001909190803560ff1690602001909190803560ff1690602001909190803560ff16906020019091905050610252565b604051808260ff1660ff16815260200191505060405180910390f35b341561012657600080fd5b61012e610398565b005b341561013b57600080fd5b610143610429565b6040518080602001828103825283818151815260200191508051906020019080838360005b83811015610183578082015181840152602081019050610168565b50505050905090810190601f1680156101b05780820380516001836020036101000a031916815260200191505b509250505060405180910390f35b34156101c957600080fd5b6101e2600480803560ff16906020019091905050610537565b005b34156101ef57600080fd5b6101f76105f4565b6040518082600560200280838360005b83811015610222578082015181840152602081019050610207565b5050505090500191505060405180910390f35b600060028260ff1660058110151561024957fe5b01549050919050565b6000806000809054906101000a900473ffffffffffffffffffffffffffffffffffffffff1673ffffffffffffffffffffffffffffffffffffffff163373ffffffffffffffffffffffffffffffffffffffff161415156102b057600080fd5b82848688010101905085600760006004811015156102ca57fe5b602091828204019190066101000a81548160ff021916908360ff16021790555084600760016004811015156102fb57fe5b602091828204019190066101000a81548160ff021916908360ff160217905550836007600260048110151561032c57fe5b602091828204019190066101000a81548160ff021916908360ff160217905550826007600360048110151561035d57fe5b602091828204019190066101000a81548160ff021916908360ff16021790555061038681610537565b61038e610429565b5050949350505050565b6000809054906101000a900473ffffffffffffffffffffffffffffffffffffffff1673ffffffffffffffffffffffffffffffffffffffff163373ffffffffffffffffffffffffffffffffffffffff161415610427576000809054906101000a900473ffffffffffffffffffffffffffffffffffffffff1673ffffffffffffffffffffffffffffffffffffffff16ff5b565b61043161063f565b600061043b61063f565b6000809250600090505b60048160ff16101561052e5760078160ff1660048110151561046357fe5b602091828204019190069054906101000a900460ff1660ff1660028260ff1660058110151561048e57fe5b0154141561049f5782806001019350505b60048360ff1614156104e8576040805190810160405280601981526020017f796f7520676f74207468652043544620307830303031323334000000000000008152509150610521565b6040805190810160405280600981526020017f54727920616761696e000000000000000000000000000000000000000000000081525091505b8080600101915050610445565b81935050505090565b6000808260ff169150816103e84281151561054e57fe5b0401905060028181151561055e57fe5b066002600060058110151561056f57fe5b018190555060038181151561058057fe5b066002600160058110151561059157fe5b01819055506005818115156105a257fe5b066002806005811015156105b257fe5b01819055506007818115156105c357fe5b06600260036005811015156105d457fe5b018190555080600260046005811015156105ea57fe5b0181905550505050565b6105fc610653565b6002600580602002604051908101604052809291908260058015610635576020028201915b815481526020019060010190808311610621575b5050505050905090565b602060405190810160405280600081525090565b60a0604051908101604052806005905b600081526020019060019003908161066357905050905600a165627a7a7230582022ce0561c7a13e89fd36adbd12e99474f765fd181863be54c2b01270427400ed0029",
  "source": "pragma solidity ^0.4.17;\r\ncontract Guess4 {\r\n    //global variables\r\n    address owner;\r\n    address creator;\r\n    //bytes32[4] bytesArray; // size must be fixed\r\n    uint[5] resultArray;\r\n    //uint8 correctCount = 0;\r\n    uint8[4] guesses;\r\n\r\n  //  uint _guess1;\r\n\r\n    //modifiers\r\n    modifier restricted() {\r\n        require(msg.sender == owner);\r\n        _;\r\n    }\r\n\r\n    // initialize\r\n    function Guess4() public {\r\n        owner = msg.sender;\r\n\r\n    }\r\n    function kill() public {\r\n        if(msg.sender == owner) selfdestruct(owner);\r\n    }\r\n    function  time_call(uint8 _adder) public{\r\n        uint adder = _adder;\r\n        uint timeNow  = now/1000 + adder;\r\n        //resultArray[0] = timeNow;\r\n        resultArray[0] = timeNow % 2;\r\n        resultArray[1] = timeNow % 3;\r\n        resultArray[2] = timeNow % 5;\r\n        resultArray[3] = timeNow % 7;\r\n        resultArray[4] = timeNow;\r\n        //resultArray[4] = timeNow % 10;\r\n    }\r\n\r\n    function getArray() constant public returns ( uint[5])\r\n    {\r\n        return resultArray;\r\n    }\r\n\r\n    function getValue(uint8 x) constant public returns (uint)\r\n    {\r\n        return resultArray[x];\r\n    }\r\n\r\n    function createGuesses(uint8 guess0, uint8 guess1, uint8 guess2, uint8 guess3) public restricted returns (uint8) {\r\n        uint8 adder = guess0 + guess1 + guess2 + guess3;\r\n        guesses[0] = guess0;\r\n        guesses[1] = guess1;\r\n        guesses[2] = guess2;\r\n        guesses[3] = guess3;\r\n        time_call(adder);\r\n        testCalls();\r\n\r\n    }\r\n\r\n    function testCalls()  public view returns (string) {\r\n        uint8 correctCount = 0;\r\n        string memory result_answer;\r\n        for(uint8 i = 0; i < 4; i++){\r\n            if(resultArray[i] == guesses[i]) {\r\n                correctCount++;\r\n            }\r\n            if (correctCount == guesses.length){\r\n              result_answer = \"you got the CTF 0x0001234\";\r\n            } else {\r\n              result_answer = \"Try again\";\r\n            }\r\n        }\r\n         return result_answer;\r\n    }\r\n\r\n}\r\n",
  "sourcePath": "C:\\Users\\glgai\\ChainSkills\\CTF\\guess\\contracts\\guess4.sol",
  "compiler": {
    "name": "solc",
    "version": "0.4.19+commit.c4cbbb05.Emscripten.clang"
  },
  "schemaVersion": "2.0.0",
  "updatedAt": "2018-03-27T20:50:18.830Z"
}